:0400000000EF05F018
:1000080000C019F001C018F00BC017F00CC016F0B2
:100018000DC015F09EAA4CD04D6AF7EC04F000C054
:100028004DF02CD0010E2B6E000E2C6E3AD0020E25
:100038002B6E000E2C6E35D0030E2B6E000E2C6E20
:1000480030D0040E2B6E000E2C6E2BD0050E2B6EAE
:10005800000E2C6E26D0060E2B6E000E2C6E21D0B4
:10006800010E2B6E000E2C6E1CD00D2EFED70C2E02
:10007800FCD70B2EFAD70000000013D04D50610AB0
:10008800D1E04D50620AD3E04D50630AD5E04D509F
:10009800640AD7E04D50650AD9E04D50660ADBE0A6
:1000A800DFD7246A256A010E2D6ED58E9D9A9E9AF9
:1000B800F2A438D028520BE08A80060E0D6E0D2E61
:1000C800FED700008A90286AF0EC04F02AD081B2AA
:1000D8001CD08A8E264A272A35D8000E275C02E1D2
:1000E800320E265C05E31A5203E0B7DB00C01FF0AE
:1000F800000E006E2750005C02E12650320804E230
:10010800010E266E000E276E09D0000E271802E198
:10011800000E261801E011D8266A276A010E286EFB
:1001280067DBF29419C000F018C001F017C00BF09B
:0A01380016C00CF015C00DF0110008
:0A0142009494BA840C0EBD12120052
:0A014C009484BA94F00EBD16120060
:100156000CD08B808B9A15D08B908B8A12D08B907B
:100166008B9A0FD08B808B8A0CD05650010AF1E007
:100176005650020AF1E05650030AF1E05650040ABE
:04018600F1E0120092
:10018A000CD08B808B9A15D08B908B8A12D08B9047
:10019A008B9A0FD08B808B8A0CD04C50010AF1E0DD
:1001AA004C50020AF1E04C50030AF1E04C50040AA8
:0401BA00F1E012005E
:1001BE000B6A0A6A096A00500402F4CF09F0F3CF01
:1001CE0008F001500502F4CF0BF0F3CF0AF0005007
:1001DE000502F3500926F4500A22E86A0B22015058
:1001EE000402F3500926F4500A22E86A0B2208C0D2
:1001FE0000F009C001F00AC002F00BC003F01200BB
:0E020E004C50010A02E196DF01D099DF120088
:10021C005550010A04E1010E566E97DF8CDF5550E4
:10022C00020A04E1020E566E90DF85DF5550030A78
:10023C0004E1030E566E89DF7EDF5550040A04E19B
:10024C00040E566E82DF77DF5550000A01E178DF2D
:10025C005550050A13E1040E566E77DF6CDF3D0E28
:10026C000B6EE10E0C6E3F0E0D6E0D2EFED70C2E8E
:10027C00FCD70B2EFAD70000000062DF5550060A9F
:10028C0026E1010E566E61DF56DF020E0B6EBA0EC2
:10029C000C6E8B0E0D6E0D2EFED70C2EFCD70B2E6E
:1002AC00FAD7000000004CDF030E566E4EDF43DF22
:1002BC00020E0B6E4A0E0C6EDB0E0D6E0D2EFED763
:1002CC000C2EFCD70B2EFAD70000000039DF55504E
:1002DC00070A26E1010E566E38DF2DDF020E0B6E7B
:1002EC00BA0E0C6E8B0E0D6E0D2EFED70C2EFCD78F
:1002FC000B2EFAD70000000023DF040E566E25DF0C
:10030C001ADF020E0B6E4A0E0C6EDB0E0D6E0D2EEE
:10031C00FED70C2EFCD70B2EFAD70000000010DFF6
:02032C001200BD
:10032E0081A60ED0206A216A1B4A1C2A1C50070A7D
:10033E0002E1D00E1B1804E1010E226E1B6A1C6A2C
:10034E0081A40ED01D6A1E6A294A2A2A2A50070A3B
:10035E0002E1D00E291804E1010E236E296A2A6AE1
:10036E0081B60DD01B6A1C6A204A212A2150070A29
:10037E0002E1D00E201803E1226A206A216A81B4BC
:10038E000DD01D4A1E2A296A2A6A1E50070A02E14A
:0E039E00D00E1D1803E1236A1D6A1E6A1200AC
:0803AC00BE6ABD98BD9A120063
:1003B4004850010A06E1010E4C6EE5DE010E4C6E5A
:1003C40024DF4850020A06E1020E4C6EDCDE010E08
:1003D4004C6E1BDF4850030A06E1030E4C6ED3DE5D
:1003E400010E4C6E12DF4850040A06E1040E4C6EF6
:1003F400CADE010E4C6E09DF4850000A02E14C6A65
:1004040004DF4850050A16E1040E4C6EBCDE010EF2
:100414004C6EFBDE3D0E0B6EE10E0C6E3F0E0D6E50
:100424000D2EFED70C2EFCD70B2EFAD700000000A1
:100434004C6AEBDE4850060A2CE1010E4C6EA3DE3A
:10044400010E4C6EE2DE020E0B6EBA0E0C6E8B0EBB
:100454000D6E0D2EFED70C2EFCD70B2EFAD70000F6
:1004640000004C6AD2DE030E4C6E8DDE010E4C6E23
:10047400CCDE020E0B6E4A0E0C6EDB0E0D6E0D2ED4
:10048400FED70C2EFCD70B2EFAD7000000004C6AC6
:10049400BCDE4850070A2CE1010E4C6E74DE010EDE
:1004A4004C6EB3DE020E0B6EBA0E0C6E8B0E0D6E1E
:1004B4000D2EFED70C2EFCD70B2EFAD70000000011
:1004C4004C6AA3DE040E4C6E5EDE010E4C6E9DDEA5
:1004D400020E0B6E4A0E0C6EDB0E0D6E0D2EFED749
:1004E4000C2EFCD70B2EFAD7000000004C6A8DDED0
:0204F4001200F4
:1004F600536A546A010E556E8EDE8A80060E0D6EA4
:100506000D2EFED700008A90080E0C6EC90E0D6ED9
:100516000D2EFED70C2EFCD70000000081B20CD0A9
:10052600542A5450010A02E1556A75DE320E545CB3
:1005360002E3006A34D008D05450000A03E0010EEA
:10054600556E69DE546A532A020E0B6E040E0C6E4B
:10055600BA0E0D6E0D2EFED70C2EFCD70B2EFAD72B
:1005660000005350640A03E1334A342A536A505058
:10057600000A0AE13450521802E15150331803E1DF
:10058600010E006E0CD00AD0CFDE2250010A06E121
:100596002350010A03E1010E006E01D0AED712000E
:1005A600BB50010F006E016A000E012248C004F024
:1005B600000E056E01DE060E026E00C004F001C0DC
:1005C60005F0025005E005320432059EFF0FFAD70A
:1005D600040E016E04C000F0015004E000360090E5
:1005E600FF0FFBD7300E0014036E04C000F005C0E9
:1005F60001F001320032019E01320032019E00C03C
:0C060600BEFF0F0EBD160350BD12120007
:10061200BA80BA82D00EBB6EC8DE800E486EC2DFD0
:020622001200C4
:100624004F50000A04E1070E556EF6DD03D0060EA6
:10063400556EF2DD010E326E506A8C0E516E000E54
:10064400526E57DF0050010A19E14F50000A04E1CD
:10065400060E556EE1DD03D0070E556EDDDD020E8C
:10066400326E010E506E516A526A43DF0050010A25
:1006740003E1010E006E03D0006A01D0006A12008B
:100684004F6A3250020A1AE1050E556EC5DD506AF2
:1006940033C051F034C052F02CDF001E01E0F7D714
:1006A4003550000A04E1070E556EB6DD03D0060E80
:1006B400556EB2DD010E4F6E010E326E3250010ADC
:1006C4002EE14F50000A03E1050E556EA5DD010E23
:1006D400506E516A526A0DDF001E01E0F8D73550A2
:1006E400000A04E1070E556E97DD03D0060E556E21
:1006F40093DD8A80060E0D6E0D2EFED700008A90C3
:10070400080E0C6EC90E0D6E0D2EFED70C2EFCD7E6
:1007140000000000000E81B2010E006E00D0120035
:100724008A8E2250000A04E02350000A01E01DD002
:10073400FCDD2250010A06E12350000A03E1030E06
:10074400486E36DE2250000A06E12350010A03E116
:10075400040E486E2DDE2250000A06E12350000AE2
:0E07640003E1010E486E24DEDCD78A9E1200EF
:10077200080ED56EE80ED76E900ED66EF28EF28A05
:02078200120063
:100784008A8CD3DD010E486E13DE2250010A05E186
:0E0794002350010A02E1C9DDF8D78A9C120049
:1007A200FF0E2E6EFF0E2F6EFF0E306EFF0E316E9D
:1007B200EE0E366E090E376E000E386E000E396E72
:1007C200FF0E3A6EFF0E3B6E000E3C6E000E3D6E4B
:1007D200FF0E3E6EFF0E3F6E000E406E000E416E2B
:1007E200AC8A900EAB6E948E949C9EAA03D0AECF30
:0607F20000F0FBD712002D
:0E07F800810ED56E3C0ED76EB00ED66E12007E
:100806009390938493869382939C939E94909494CE
:1008160094969498949A956A0F01396B3A6B3B6B50
:100826008B6A8B868B88F2DEF28CF28E9D8AB88676
:10083600B06ACF0EAF6EAC84B1DF020E0B6E040E43
:100846000C6EBA0E0D6E0D2EFED70C2EFCD70B2E8F
:0C085600FAD70000948E948C89DF120009
:10086200356A4F6ADEDE00C04EF00050010A03E135
:100872000A0E006E44D005DF00C04EF00050010A9F
:1008820002E1006A3CD0010E356E010E4F6EC9DEE8
:1008920000C04EF00050010A03E1140E006E2FD08A
:1008A200F0DE00C04EF00050010A02E1006A27D0DB
:1008B2004E50000A23E18A80060E0D6E0D2EFED7E1
:1008C20000008A90080E0C6EC90E0D6E0D2EFED71A
:1008D2000C2EFCD70000000081A202D0010E4E6E49
:1008E200020E0B6E040E0C6EBA0E0D6E0D2EFED79E
:1008F2000C2EFCD70B2EFAD70000DAD7006A1200B2
:10090200465214E0010E4414016E45C002F0000E7E
:100912000216000E021802E1000E011804E1070E91
:10092200486E47DD03D0060E486E43DD2ADFF9DE4E
:10093200486A3FDD330E0B6EBB0E0C6EDF0E0D6E82
:100942000D2EFED70C2EFCD70B2EFAD7000000007E
:0C095200050E486E2EDD15DFE4DE1200FD
:10095E00486A29DD010E4414016E45C002F0000EF6
:10096E000216000E021802E1000E01180BE1060E2F
:10097E00486E19DD44C046F045C047F04732463256
:10098E00479E0CD0070E486E0EDD010E4424466EB7
:10099E00000E4520476E47324632479E000E4718DE
:1009AE0002E1000E461807E0E6DEB5DE010E465EF9
:1009BE00000E475AF3D7486AF6DC050E486EF3DC94
:0209CE00120015
:1009D0000900F5CFE6FF0006FBE10106F9E1120090
:0E09E000880ED56EE80ED76E900ED66E120001
:1009EE00AECF01F0ABA202D0AB98AB8801C000F045
:0209FE001200E5
:100A0000B0EC05F0426A436AFEDE000E251802E1F2
:100A1000010E241801E1F9D781A697D081A495D0C1
:100A20008A8C330E0B6EBB0E0C6EDF0E0D6E0D2E10
:100A3000FED70C2EFCD70B2EFAD700000000150EA7
:100A40000B6E4B0E0C6EBE0E0D6E0D2EFED70C2EC9
:100A5000FCD70B2EFAD7000095DE1A6A63DE8A8E69
:100A60001F0E0B6E710E0C6E1E0E0D6E0D2EFED730
:100A70000C2EFCD70B2EFAD700001A6A424A432AE2
:100A800042C001F043C002F00136019002362C5002
:100A9000025C02E12B50015C3FE31F50000829E299
:100AA000010E2B14016E2CC002F0000E0216000E77
:100AB000021802E1010E011807E11F500A0A04E1C1
:100AC000060E486E77DC2D6A010E2B14016E2CC0C9
:100AD00002F0000E0216000E021802E1000E0118CC
:100AE00007E11F50140A04E1070E486E63DC2D6A0B
:100AF00019DE2BC044F02CC045F02DC046F001DFBC
:100B00002BC044F02CC045F02ADF010E246E000EED
:100B1000256ED59E9D8A19D01F50000816E21F50E1
:100B20000A0A04E1060E486E45DC03D0070E486E43
:100B300041DCF8DD1F500A0A04E1070E486E3ADC7A
:0E0B400003D0060E486E36DC1F6A5FD7FFD763
:100B600010EE1AF0110E006E010E016E4E0EF66EB2
:0E0B70000B0EF76E000EF86EE8EC04F01200AB
:010B4E0000A6
:020B4F000000A4
:020B51000000A2
:010B530000A1
:020B540000009F
:010B5600019D
:010B5700019C
:020B580001009A
:020B5A00000099
:010B5C000197
:020B5D00000096
:020000040030CA
:0D000100231F3CFFBF81FF0FC00FE00F4029
:00000001FF
